{
  "contractName": "IdentiX",
  "abi": [
    {
      "constant": true,
      "inputs": [],
      "name": "admin",
      "outputs": [
        {
          "name": "",
          "type": "address"
        }
      ],
      "payable": false,
      "stateMutability": "view",
      "type": "function"
    },
    {
      "inputs": [],
      "payable": false,
      "stateMutability": "nonpayable",
      "type": "constructor"
    },
    {
      "constant": false,
      "inputs": [
        {
          "name": "inst_pub_addr",
          "type": "address"
        },
        {
          "name": "name",
          "type": "string"
        },
        {
          "name": "street_addr",
          "type": "string"
        },
        {
          "name": "city",
          "type": "string"
        },
        {
          "name": "state",
          "type": "uint8"
        },
        {
          "name": "institution_type",
          "type": "uint8"
        },
        {
          "name": "can_verify",
          "type": "bool"
        }
      ],
      "name": "add_institution",
      "outputs": [],
      "payable": false,
      "stateMutability": "nonpayable",
      "type": "function"
    },
    {
      "constant": false,
      "inputs": [
        {
          "name": "identifying_info",
          "type": "string"
        },
        {
          "name": "date_of_birth",
          "type": "uint256"
        },
        {
          "name": "sex",
          "type": "uint8"
        },
        {
          "name": "gender",
          "type": "uint8"
        },
        {
          "name": "id_type",
          "type": "uint8"
        }
      ],
      "name": "join_as_client",
      "outputs": [],
      "payable": false,
      "stateMutability": "nonpayable",
      "type": "function"
    },
    {
      "constant": false,
      "inputs": [
        {
          "name": "client_pub_addr",
          "type": "address"
        },
        {
          "name": "identifying_info",
          "type": "string"
        },
        {
          "name": "id_type",
          "type": "uint8"
        }
      ],
      "name": "verify_exisiting_client",
      "outputs": [],
      "payable": false,
      "stateMutability": "nonpayable",
      "type": "function"
    },
    {
      "constant": false,
      "inputs": [
        {
          "name": "client_pub_addr",
          "type": "address"
        },
        {
          "name": "permission_key_hash",
          "type": "string"
        },
        {
          "name": "time_of_visit",
          "type": "uint256"
        },
        {
          "name": "ipfs_address",
          "type": "string"
        }
      ],
      "name": "add_record",
      "outputs": [],
      "payable": false,
      "stateMutability": "nonpayable",
      "type": "function"
    },
    {
      "constant": false,
      "inputs": [
        {
          "name": "inst_pub_addr",
          "type": "address"
        },
        {
          "name": "identifying_info_for_inst",
          "type": "string"
        }
      ],
      "name": "check_in",
      "outputs": [],
      "payable": false,
      "stateMutability": "nonpayable",
      "type": "function"
    },
    {
      "constant": false,
      "inputs": [],
      "name": "client_self_check_out",
      "outputs": [],
      "payable": false,
      "stateMutability": "nonpayable",
      "type": "function"
    },
    {
      "constant": false,
      "inputs": [
        {
          "name": "client_pub_addr",
          "type": "address"
        }
      ],
      "name": "inst_client_check_out",
      "outputs": [],
      "payable": false,
      "stateMutability": "nonpayable",
      "type": "function"
    }
  ],
  "bytecode": "0x608060405234801561001057600080fd5b50336000806101000a81548173ffffffffffffffffffffffffffffffffffffffff021916908373ffffffffffffffffffffffffffffffffffffffff160217905550612020806100606000396000f30060806040526004361061008e576000357c0100000000000000000000000000000000000000000000000000000000900463ffffffff16806304865fd0146100935780631de82237146100ff57806393dc18c4146101165780639ac1e412146101c7578063d59e5ca71461022f578063d5e952a4146102ac578063f675e6df146102ef578063f851a4401461034a575b600080fd5b34801561009f57600080fd5b506100fd60048036038101908080359060200190820180359060200191909192939192939080359060200190929190803560ff169060200190929190803560ff169060200190929190803560ff1690602001909291905050506103a1565b005b34801561010b57600080fd5b506101146107e3565b005b34801561012257600080fd5b506101c5600480360381019080803573ffffffffffffffffffffffffffffffffffffffff169060200190929190803590602001908201803590602001919091929391929390803590602001908201803590602001919091929391929390803590602001908201803590602001919091929391929390803560ff169060200190929190803560ff1690602001909291908035151590602001909291905050506109ce565b005b3480156101d357600080fd5b5061022d600480360381019080803573ffffffffffffffffffffffffffffffffffffffff169060200190929190803590602001908201803590602001919091929391929390803560ff169060200190929190505050610d34565b005b34801561023b57600080fd5b506102aa600480360381019080803573ffffffffffffffffffffffffffffffffffffffff16906020019092919080359060200190820180359060200191909192939192939080359060200190929190803590602001908201803590602001919091929391929390505050610ec7565b005b3480156102b857600080fd5b506102ed600480360381019080803573ffffffffffffffffffffffffffffffffffffffff16906020019092919050505061138b565b005b3480156102fb57600080fd5b50610348600480360381019080803573ffffffffffffffffffffffffffffffffffffffff169060200190929190803590602001908201803590602001919091929391929390505050611696565b005b34801561035657600080fd5b5061035f61199e565b604051808273ffffffffffffffffffffffffffffffffffffffff1673ffffffffffffffffffffffffffffffffffffffff16815260200191505060405180910390f35b6103a9611c71565b600160003373ffffffffffffffffffffffffffffffffffffffff1673ffffffffffffffffffffffffffffffffffffffff16815260200190815260200160002060030160039054906101000a900460ff16151515610494576040517f08c379a000000000000000000000000000000000000000000000000000000000815260040180806020018281038252603b8152602001807f41646472657373206173736f636961746564207769746820696e73746974757481526020017f696f6e2e2043616e6e6f74206a6f696e20617320636c69656e742e000000000081525060400191505060405180910390fd5b600260003373ffffffffffffffffffffffffffffffffffffffff1673ffffffffffffffffffffffffffffffffffffffff16815260200190815260200160002060040160039054906101000a900460ff161515156105a5576040517f08c379a00000000000000000000000000000000000000000000000000000000081526004018080602001828103825260468152602001807f4164647265737320616c7265616479206173736f63696174656420776974682081526020017f6120636c69656e742e2043616e6e6f74206a6f696e20617320636c69656e742081526020017f616761696e2e000000000000000000000000000000000000000000000000000081525060600191505060405180910390fd5b6101206040519081016040528088888080601f016020809104026020016040519081016040528093929190818152602001838380828437820191505050505050815260200160206040519081016040528060008152508152602001600073ffffffffffffffffffffffffffffffffffffffff16815260200186815260200185600181111561062f57fe5b815260200184600381111561064057fe5b815260200183600281111561065157fe5b81526020016001151581526020016000815250905080600260003373ffffffffffffffffffffffffffffffffffffffff1673ffffffffffffffffffffffffffffffffffffffff16815260200190815260200160002060008201518160000190805190602001906106c2929190611cf7565b5060208201518160010190805190602001906106df929190611cf7565b5060408201518160020160006101000a81548173ffffffffffffffffffffffffffffffffffffffff021916908373ffffffffffffffffffffffffffffffffffffffff1602179055506060820151816003015560808201518160040160006101000a81548160ff0219169083600181111561075557fe5b021790555060a08201518160040160016101000a81548160ff0219169083600381111561077e57fe5b021790555060c08201518160040160026101000a81548160ff021916908360028111156107a757fe5b021790555060e08201518160040160036101000a81548160ff021916908315150217905550610100820151816005015590505050505050505050565b6000600260003373ffffffffffffffffffffffffffffffffffffffff1673ffffffffffffffffffffffffffffffffffffffff16815260200190815260200160002060040160039054906101000a900460ff1615156108a9576040517f08c379a00000000000000000000000000000000000000000000000000000000081526004018080602001828103825260208152602001807f4f6e6c7920636c69656e74732063616e2073656c6620636865636b206f75742e81525060200191505060405180910390fd5b600260003373ffffffffffffffffffffffffffffffffffffffff1673ffffffffffffffffffffffffffffffffffffffff168152602001908152602001600020905060008160020160009054906101000a900473ffffffffffffffffffffffffffffffffffffffff1673ffffffffffffffffffffffffffffffffffffffff161115156109c2576040517f08c379a00000000000000000000000000000000000000000000000000000000081526004018080602001828103825260288152602001807f436c69656e74206e6f7420636865636b656420696e2e2043616e6e6f7420636881526020017f65636b206f75742e00000000000000000000000000000000000000000000000081525060400191505060405180910390fd5b6109cb336119c3565b50565b6109d6611d77565b6000809054906101000a900473ffffffffffffffffffffffffffffffffffffffff1673ffffffffffffffffffffffffffffffffffffffff163373ffffffffffffffffffffffffffffffffffffffff16141515610ac0576040517f08c379a00000000000000000000000000000000000000000000000000000000081526004018080602001828103825260248152602001807f4f6e6c79207468652061646d696e2063616e2061646420696e7374697475746981526020017f6f6e732e0000000000000000000000000000000000000000000000000000000081525060400191505060405180910390fd5b610100604051908101604052808b8b8080601f016020809104026020016040519081016040528093929190818152602001838380828437820191505050505050815260200189898080601f016020809104026020016040519081016040528093929190818152602001838380828437820191505050505050815260200187878080601f0160208091040260200160405190810160405280939291908181526020018383808284378201915050505050508152602001856032811115610b8157fe5b8152602001846000811115610b9257fe5b815260200183151581526020016001151581526020016000604051908082528060200260200182016040528015610bd85781602001602082028038833980820191505090505b50815250905080600160008d73ffffffffffffffffffffffffffffffffffffffff1673ffffffffffffffffffffffffffffffffffffffff1681526020019081526020016000206000820151816000019080519060200190610c3a929190611cf7565b506020820151816001019080519060200190610c57929190611cf7565b506040820151816002019080519060200190610c74929190611cf7565b5060608201518160030160006101000a81548160ff02191690836032811115610c9957fe5b021790555060808201518160030160016101000a81548160ff02191690836000811115610cc257fe5b021790555060a08201518160030160026101000a81548160ff02191690831515021790555060c08201518160030160036101000a81548160ff02191690831515021790555060e0820151816004019080519060200190610d23929190611dd6565b509050505050505050505050505050565b6000600160003373ffffffffffffffffffffffffffffffffffffffff1673ffffffffffffffffffffffffffffffffffffffff16815260200190815260200160002060030160029054906101000a900460ff161515610e46576040517f08c379a00000000000000000000000000000000000000000000000000000000081526004018080602001828103825260428152602001807f4f6e6c7920696e737469747574696f6e7320776974682076657269666963617481526020017f696f6e2070726976696c656765732063616e2076657269667920636c69656e7481526020017f732e00000000000000000000000000000000000000000000000000000000000081525060600191505060405180910390fd5b600260008673ffffffffffffffffffffffffffffffffffffffff1673ffffffffffffffffffffffffffffffffffffffff16815260200190815260200160002090508383826000019190610e9a929190611e60565b50818160040160026101000a81548160ff02191690836002811115610ebb57fe5b02179055505050505050565b6000600160003373ffffffffffffffffffffffffffffffffffffffff1673ffffffffffffffffffffffffffffffffffffffff16815260200190815260200160002060030160039054906101000a900460ff161515610fb3576040517f08c379a00000000000000000000000000000000000000000000000000000000081526004018080602001828103825260228152602001807f4f6e6c7920696e737469747574696f6e732063616e20616464207265636f726481526020017f732e00000000000000000000000000000000000000000000000000000000000081525060400191505060405180910390fd5b600260008873ffffffffffffffffffffffffffffffffffffffff1673ffffffffffffffffffffffffffffffffffffffff16815260200190815260200160002060040160039054906101000a900460ff16151561109d576040517f08c379a00000000000000000000000000000000000000000000000000000000081526004018080602001828103825260238152602001807f4d75737420626520616464696e67207265636f72647320746f206120636c696581526020017f6e742e000000000000000000000000000000000000000000000000000000000081525060400191505060405180910390fd5b3373ffffffffffffffffffffffffffffffffffffffff16600260008973ffffffffffffffffffffffffffffffffffffffff1673ffffffffffffffffffffffffffffffffffffffff16815260200190815260200160002060020160009054906101000a900473ffffffffffffffffffffffffffffffffffffffff1673ffffffffffffffffffffffffffffffffffffffff161415156111ee576040517f08c379a000000000000000000000000000000000000000000000000000000000815260040180806020018281038252604b8152602001807f496e737469747574696f6e73206d6179206f6e6c7920616464207265636f726481526020017f7320746f20636c69656e747320746861742061726520636865636b656420696e81526020017f2077697468207468656d2e00000000000000000000000000000000000000000081525060600191505060405180910390fd5b600260008873ffffffffffffffffffffffffffffffffffffffff1673ffffffffffffffffffffffffffffffffffffffff16815260200190815260200160002090506080604051908101604052803373ffffffffffffffffffffffffffffffffffffffff16815260200187878080601f016020809104026020016040519081016040528093929190818152602001838380828437820191505050505050815260200185815260200184848080601f0160208091040260200160405190810160405280939291908181526020018383808284378201915050505050508152508160060160008360050154815260200190815260200160002060008201518160000160006101000a81548173ffffffffffffffffffffffffffffffffffffffff021916908373ffffffffffffffffffffffffffffffffffffffff1602179055506020820151816001019080519060200190611347929190611cf7565b5060408201518160020155606082015181600301908051906020019061136e929190611cf7565b509050506001816005015401816005018190555050505050505050565b600160003373ffffffffffffffffffffffffffffffffffffffff1673ffffffffffffffffffffffffffffffffffffffff16815260200190815260200160002060030160039054906101000a900460ff161515611475576040517f08c379a000000000000000000000000000000000000000000000000000000000815260040180806020018281038252602e8152602001807f4f6e6c7920696e737469747574696f6e732063616e20636865636b206f75742081526020017f746865697220636c69656e74732e00000000000000000000000000000000000081525060400191505060405180910390fd5b600260008273ffffffffffffffffffffffffffffffffffffffff1673ffffffffffffffffffffffffffffffffffffffff16815260200190815260200160002060040160039054906101000a900460ff161515611539576040517f08c379a000000000000000000000000000000000000000000000000000000000815260040180806020018281038252601e8152602001807f4d75737420626520636865636b696e67206f7574206120636c69656e742e000081525060200191505060405180910390fd5b3373ffffffffffffffffffffffffffffffffffffffff16600260008373ffffffffffffffffffffffffffffffffffffffff1673ffffffffffffffffffffffffffffffffffffffff16815260200190815260200160002060020160009054906101000a900473ffffffffffffffffffffffffffffffffffffffff1673ffffffffffffffffffffffffffffffffffffffff1614151561168a576040517f08c379a00000000000000000000000000000000000000000000000000000000081526004018080602001828103825260468152602001807f496e737469747574696f6e73206d6179206f6e6c7920636865636b206f75742081526020017f636c69656e747320746861742061726520636865636b656420696e207769746881526020017f207468656d2e000000000000000000000000000000000000000000000000000081525060600191505060405180910390fd5b611693816119c3565b50565b6000600260003373ffffffffffffffffffffffffffffffffffffffff1673ffffffffffffffffffffffffffffffffffffffff16815260200190815260200160002060040160039054906101000a900460ff16151561175c576040517f08c379a000000000000000000000000000000000000000000000000000000000815260040180806020018281038252601a8152602001807f4f6e6c7920636c69656e74732063616e20636865636b20696e2e00000000000081525060200191505060405180910390fd5b600260003373ffffffffffffffffffffffffffffffffffffffff1673ffffffffffffffffffffffffffffffffffffffff168152602001908152602001600020905060008160020160009054906101000a900473ffffffffffffffffffffffffffffffffffffffff1673ffffffffffffffffffffffffffffffffffffffff1614151561189b576040517f08c379a000000000000000000000000000000000000000000000000000000000815260040180806020018281038252604f8152602001807f436c69656e7420697320616c726561647920636865636b656420696e2e20436881526020017f65636b206f757420746f20636865636b20696e2061742061206469666665726581526020017f6e7420696e737469747574696f6e2e000000000000000000000000000000000081525060600191505060405180910390fd5b82828260010191906118ae929190611e60565b50838160020160006101000a81548173ffffffffffffffffffffffffffffffffffffffff021916908373ffffffffffffffffffffffffffffffffffffffff160217905550600160008573ffffffffffffffffffffffffffffffffffffffff1673ffffffffffffffffffffffffffffffffffffffff1681526020019081526020016000206004013390806001815401808255809150509060018203906000526020600020016000909192909190916101000a81548173ffffffffffffffffffffffffffffffffffffffff021916908373ffffffffffffffffffffffffffffffffffffffff1602179055505050505050565b6000809054906101000a900473ffffffffffffffffffffffffffffffffffffffff1681565b600080600080600260008673ffffffffffffffffffffffffffffffffffffffff1673ffffffffffffffffffffffffffffffffffffffff1681526020019081526020016000209350600160008560020160009054906101000a900473ffffffffffffffffffffffffffffffffffffffff1673ffffffffffffffffffffffffffffffffffffffff1673ffffffffffffffffffffffffffffffffffffffff168152602001908152602001600020600401925060009150600090505b80158015611a8c5750828054905082105b15611bf4573373ffffffffffffffffffffffffffffffffffffffff168383815481101515611ab657fe5b9060005260206000200160009054906101000a900473ffffffffffffffffffffffffffffffffffffffff1673ffffffffffffffffffffffffffffffffffffffff161415611bef57826001848054905003815481101515611b1257fe5b9060005260206000200160009054906101000a900473ffffffffffffffffffffffffffffffffffffffff168383815481101515611b4b57fe5b9060005260206000200160006101000a81548173ffffffffffffffffffffffffffffffffffffffff021916908373ffffffffffffffffffffffffffffffffffffffff160217905550826001848054905003815481101515611ba857fe5b9060005260206000200160006101000a81549073ffffffffffffffffffffffffffffffffffffffff021916905582805480919060019003611be99190611ee0565b50600190505b611a7b565b801515611bfd57fe5b6020604051908101604052806000815250846001019080519060200190611c25929190611f0c565b5060008460020160006101000a81548173ffffffffffffffffffffffffffffffffffffffff021916908373ffffffffffffffffffffffffffffffffffffffff1602179055505050505050565b610120604051908101604052806060815260200160608152602001600073ffffffffffffffffffffffffffffffffffffffff1681526020016000815260200160006001811115611cbd57fe5b815260200160006003811115611ccf57fe5b815260200160006002811115611ce157fe5b8152602001600015158152602001600081525090565b828054600181600116156101000203166002900490600052602060002090601f016020900481019282601f10611d3857805160ff1916838001178555611d66565b82800160010185558215611d66579182015b82811115611d65578251825591602001919060010190611d4a565b5b509050611d739190611f8c565b5090565b6101006040519081016040528060608152602001606081526020016060815260200160006032811115611da657fe5b8152602001600080811115611db757fe5b8152602001600015158152602001600015158152602001606081525090565b828054828255906000526020600020908101928215611e4f579160200282015b82811115611e4e5782518260006101000a81548173ffffffffffffffffffffffffffffffffffffffff021916908373ffffffffffffffffffffffffffffffffffffffff16021790555091602001919060010190611df6565b5b509050611e5c9190611fb1565b5090565b828054600181600116156101000203166002900490600052602060002090601f016020900481019282601f10611ea157803560ff1916838001178555611ecf565b82800160010185558215611ecf579182015b82811115611ece578235825591602001919060010190611eb3565b5b509050611edc9190611f8c565b5090565b815481835581811115611f0757818360005260206000209182019101611f069190611f8c565b5b505050565b828054600181600116156101000203166002900490600052602060002090601f016020900481019282601f10611f4d57805160ff1916838001178555611f7b565b82800160010185558215611f7b579182015b82811115611f7a578251825591602001919060010190611f5f565b5b509050611f889190611f8c565b5090565b611fae91905b80821115611faa576000816000905550600101611f92565b5090565b90565b611ff191905b80821115611fed57600081816101000a81549073ffffffffffffffffffffffffffffffffffffffff021916905550600101611fb7565b5090565b905600a165627a7a723058203db3ec3cd0c63093e0b9a648464928fd1d7bcadae1201a1422b741387df30f8b0029",
  "source": "pragma solidity ^0.4.24;\ncontract IdentiX {\n    enum State { Alabama, Alaska, Arizona, Arkansas, California, Colorado, Connecticut, Delaware, District_of_Columbia, Florida, Georgia, Hawaii, Idaho, Illinois, Indiana, Iowa, Kansas, Kentucky, Louisiana, Maine, Maryland, Massachusetts, Michigan, Minnesota, Mississippi, Missouri, Montana, Nebraska, Nevada, New_Hampshire, New_Jersey, New_Mexico, New_York, North_Carolina, North_Dakota, Ohio, Oklahoma, Oregon, Pennsylvania, Rhode_Island, South_Carolina, South_Dakota, Tennessee, Texas, Utah, Vermont, Virginia, Washington, West_Virginia, Wisconsin, Wyoming }\n    enum Institution_Type { basic }\n    struct Institution {\n        string name;\n        string street_addr;\n        string city;\n        State state;\n        Institution_Type institution_type;\n        bool can_verify;\n        bool exists;\n        \n        address[] checked_in_clients;\n    }\n    \n    enum Sex { Male, Female }\n    enum Gender { Male, Female, Nonbinary, Other }\n    enum ID_Type { No_ID, SSN, California_state_ID }\n    \n    struct Record_Meta {\n        address inst_pub_addr;\n        string permission_key_hash;\n        uint256 time_of_visit;\n     \n        string ipfs_address;\n    }\n    struct Client {\n        string identifying_info; //first name, last name, and id number are encrypted for privacy\n        string identifying_info_for_inst;\n        address inst_checked_in_at;\n        uint256 date_of_birth;\n        Sex sex;\n        Gender gender;\n        ID_Type id_type;\n        bool exists;\n        \n       // Record_Meta[] record_metas;\n        uint len;\n        mapping(uint => Record_Meta) record_metas;\n    }\n    \n    address public admin;\n    mapping(address => Institution) institution_map;\n    mapping(address => Client) client_map;\n\n    constructor() public {\n        admin = msg.sender;\n    }\n    \n    function add_institution(address inst_pub_addr, string name, string street_addr, string city, State state, Institution_Type institution_type, bool can_verify) external {\n        require(msg.sender == admin, \"Only the admin can add institutions.\");\n        Institution memory new_institution = Institution({name: name, street_addr: street_addr, city: city, state: state, institution_type: institution_type, can_verify: can_verify, exists: true, checked_in_clients: new address[](0)});\n        \n        institution_map[inst_pub_addr] = new_institution;\n    }\n    \n    function join_as_client(string identifying_info, uint256 date_of_birth, Sex sex, Gender gender, ID_Type id_type) external {\n        require(!institution_map[msg.sender].exists, \"Address associated with institution. Cannot join as client.\");\n        require(!client_map[msg.sender].exists, \"Address already associated with a client. Cannot join as client again.\");\n        \n        Client memory new_client = Client({identifying_info: identifying_info, date_of_birth: date_of_birth, sex: sex, gender: gender, id_type: id_type, identifying_info_for_inst: \"\", inst_checked_in_at: 0, exists: true, len: 0});\n        \n        \n        client_map[msg.sender] = new_client;\n    }\n    \n    function verify_exisiting_client(address client_pub_addr, string identifying_info, ID_Type id_type) external {\n        require(institution_map[msg.sender].can_verify, \"Only institutions with verification privileges can verify clients.\");\n        Client storage client = client_map[client_pub_addr];\n        \n        client.identifying_info = identifying_info;\n        client.id_type = id_type;\n    }\n    \n    function add_record(address client_pub_addr, string permission_key_hash, uint256 time_of_visit, string ipfs_address) external {\n        require(institution_map[msg.sender].exists, \"Only institutions can add records.\");\n        require(client_map[client_pub_addr].exists, \"Must be adding records to a client.\");\n        require(client_map[client_pub_addr].inst_checked_in_at == msg.sender, \"Institutions may only add records to clients that are checked in with them.\");\n\n         \n\n        Client storage c = client_map[client_pub_addr];\n        c.record_metas[c.len] = Record_Meta({inst_pub_addr: msg.sender, permission_key_hash: permission_key_hash, time_of_visit: time_of_visit, ipfs_address: ipfs_address});\n        c.len = c.len + 1;\n    }\n    \n    function check_in(address inst_pub_addr, string identifying_info_for_inst) external {\n        require(client_map[msg.sender].exists, \"Only clients can check in.\");\n        Client storage client = client_map[msg.sender];\n        require(client.inst_checked_in_at == 0, \"Client is already checked in. Check out to check in at a different institution.\");\n        \n        client.identifying_info_for_inst = identifying_info_for_inst;\n        client.inst_checked_in_at = inst_pub_addr;\n        \n        institution_map[inst_pub_addr].checked_in_clients.push(msg.sender);\n    }\n    \n    function check_out_helper(address client_pub_addr) internal {\n        Client storage client = client_map[client_pub_addr];\n        address[] storage clients_list = institution_map[client.inst_checked_in_at].checked_in_clients;\n        uint i = 0;\n        bool deleted = false;\n        while (!deleted && i < clients_list.length) {\n            if (clients_list[i] == msg.sender) {\n                clients_list[i] = clients_list[clients_list.length-1];\n                delete clients_list[clients_list.length-1];\n                clients_list.length--;\n                deleted = true;\n            }\n        }\n        assert(deleted);\n\n        client.identifying_info_for_inst = \"\";\n        client.inst_checked_in_at = 0;\n    }\n    \n    function client_self_check_out() external {\n        require(client_map[msg.sender].exists, \"Only clients can self check out.\");\n        Client storage client = client_map[msg.sender];\n        require(client.inst_checked_in_at > 0, \"Client not checked in. Cannot check out.\");\n        \n        check_out_helper(msg.sender);\n    }\n    \n    function inst_client_check_out(address client_pub_addr) external {\n        require(institution_map[msg.sender].exists, \"Only institutions can check out their clients.\");\n        require(client_map[client_pub_addr].exists, \"Must be checking out a client.\");\n        require(client_map[client_pub_addr].inst_checked_in_at == msg.sender, \"Institutions may only check out clients that are checked in with them.\");\n        \n        check_out_helper(client_pub_addr);\n    }\n    \n}\n",
  "sourcePath": "/home/jrharika/BAB/BAB_IP_Homelessness/contracts/IdentiX.sol",
  "compiler": {
    "name": "solc",
    "version": "0.4.24+commit.e67f0147.Emscripten.clang"
  },
  "schemaVersion": "2.0.1",
  "updatedAt": "2018-11-12T03:02:16.282Z"
}